{
  "transactions": [
    {
      "hash": "0x739a516ac9a163761bd94e6fc17defe8a3b66f391d6e2e1b56f2235ede3055e6",
      "transactionType": "CALL",
      "contractName": null,
      "contractAddress": "0x2744e8aace17a217858ff8394c9d1198279215d9",
      "function": "setCUSDToken(address)",
      "arguments": [
        "0xdE9e4C3ce781b4bA68120d6261cbad65ce0aB00b"
      ],
      "transaction": {
        "from": "0xd2df53d9791e98db221842dd085f4144014bbe2a",
        "to": "0x2744e8aace17a217858ff8394c9d1198279215d9",
        "gas": "0xa545",
        "value": "0x0",
        "input": "0xfc1fd134000000000000000000000000de9e4c3ce781b4ba68120d6261cbad65ce0ab00b",
        "nonce": "0x34",
        "chainId": "0xaa044c"
      },
      "additionalContracts": [],
      "isFixedGasLimit": false
    }
  ],
  "receipts": [
    {
      "status": "0x1",
      "cumulativeGasUsed": "0x12b7c",
      "logs": [
        {
          "address": "0x2744e8aace17a217858ff8394c9d1198279215d9",
          "topics": [
            "0x3895967dfc11cebbd91389d10eed123166ee1370d0e8a14bc5f88180d5766381",
            "0x000000000000000000000000874069fa1eb16d44d622f2e0ca25eea172369bc1",
            "0x000000000000000000000000de9e4c3ce781b4ba68120d6261cbad65ce0ab00b"
          ],
          "data": "0x",
          "blockHash": "0x7dd7d8068b2674c2d8426ed4cf4c8e05516af493fbdc45790d292b036643bbba",
          "blockNumber": "0xa07b0a",
          "transactionHash": "0x739a516ac9a163761bd94e6fc17defe8a3b66f391d6e2e1b56f2235ede3055e6",
          "transactionIndex": "0x1",
          "logIndex": "0x0",
          "removed": false
        }
      ],
      "logsBloom": "0x00000000000000000000000000000000000000000000000000000000000000100100010000000000000000000000000000000000000000000008000000000000000000000000000000000000000000000000000000000000000000000000000000000000000002020000000000000000000000000000000000000000000000000000000000000040000000000008000000000000000000200000000000000000000000000000004000000000000000000000000000000000000000000000000000000004000000000000000000000000000000000000000000000000000000000000000000000000000000000000080000000000000000000000000000000000",
      "type": "0x2",
      "transactionHash": "0x739a516ac9a163761bd94e6fc17defe8a3b66f391d6e2e1b56f2235ede3055e6",
      "transactionIndex": "0x1",
      "blockHash": "0x7dd7d8068b2674c2d8426ed4cf4c8e05516af493fbdc45790d292b036643bbba",
      "blockNumber": "0xa07b0a",
      "gasUsed": "0x77a8",
      "effectiveGasPrice": "0x5d21dba01",
      "from": "0xd2df53d9791e98db221842dd085f4144014bbe2a",
      "to": "0x2744e8aace17a217858ff8394c9d1198279215d9",
      "contractAddress": null,
      "l1BaseFeeScalar": "0x0",
      "l1BlobBaseFee": "0x1",
      "l1BlobBaseFeeScalar": "0x0",
      "l1Fee": "0x0",
      "l1GasPrice": "0xa",
      "l1GasUsed": "0x640"
    }
  ],
  "libraries": [],
  "pending": [],
  "returns": {},
  "timestamp": 1763801248,
  "chain": 11142220,
  "commit": "f1f2a54"
}