{
  "transactions": [
    {
      "hash": "0x79303d6261610552477f17e7606d03c3e37dda5fd70efb60b7861aaeafe6389f",
      "transactionType": "CALL",
      "contractName": null,
      "contractAddress": "0xbde05919ce1ee2e20502327ff74101a8047c37be",
      "function": "setPaymentToken(address)",
      "arguments": [
        "0x9A8629e7D3FcCDbC4d1DE24d43013452cfF23cF0"
      ],
      "transaction": {
        "from": "0xd2df53d9791e98db221842dd085f4144014bbe2a",
        "to": "0xbde05919ce1ee2e20502327ff74101a8047c37be",
        "gas": "0xa60e",
        "value": "0x0",
        "input": "0x6a326ab10000000000000000000000009a8629e7d3fccdbc4d1de24d43013452cff23cf0",
        "nonce": "0x35",
        "chainId": "0xaa044c"
      },
      "additionalContracts": [],
      "isFixedGasLimit": false
    },
    {
      "hash": "0xd5f242cb0df1e9f959e30950a72416881619f427fcd908d9b7bf2e15c4715745",
      "transactionType": "CALL",
      "contractName": null,
      "contractAddress": "0x9a8629e7d3fccdbc4d1de24d43013452cff23cf0",
      "function": "setRewardsContract(address)",
      "arguments": [
        "0xC36b614D6e8Ef0dD5c50c8031a1ED0B7a7442280"
      ],
      "transaction": {
        "from": "0xd2df53d9791e98db221842dd085f4144014bbe2a",
        "to": "0x9a8629e7d3fccdbc4d1de24d43013452cff23cf0",
        "gas": "0x10154",
        "value": "0x0",
        "input": "0xdfa0dfa5000000000000000000000000c36b614d6e8ef0dd5c50c8031a1ed0b7a7442280",
        "nonce": "0x36",
        "chainId": "0xaa044c"
      },
      "additionalContracts": [],
      "isFixedGasLimit": false
    }
  ],
  "receipts": [
    {
      "status": "0x1",
      "cumulativeGasUsed": "0x1256b",
      "logs": [],
      "logsBloom": "0x00000000000000000000000000000000000000000000000000000000000000000000000000000000000000000000000000000000000000000000000000000000000000000000000000000000000000000000000000000000000000000000000000000000000000000000000000000000000000000000000000000000000000000000000000000000000000000000000000000000000000000000000000000000000000000000000000000000000000000000000000000000000000000000000000000000000000000000000000000000000000000000000000000000000000000000000000000000000000000000000000000000000000000000000000000000",
      "type": "0x2",
      "transactionHash": "0x79303d6261610552477f17e7606d03c3e37dda5fd70efb60b7861aaeafe6389f",
      "transactionIndex": "0x1",
      "blockHash": "0xc2e61c6266cf7154159d2848d6f73f9d5b5256bfb8c94774b53d1e148ceb16ab",
      "blockNumber": "0xa0ea63",
      "gasUsed": "0x718b",
      "effectiveGasPrice": "0x5d21dba01",
      "from": "0xd2df53d9791e98db221842dd085f4144014bbe2a",
      "to": "0xbde05919ce1ee2e20502327ff74101a8047c37be",
      "contractAddress": null,
      "l1BaseFeeScalar": "0x0",
      "l1BlobBaseFee": "0x1",
      "l1BlobBaseFeeScalar": "0x0",
      "l1Fee": "0x0",
      "l1GasPrice": "0xa",
      "l1GasUsed": "0x640"
    },
    {
      "status": "0x1",
      "cumulativeGasUsed": "0x1dfb9",
      "logs": [
        {
          "address": "0x9a8629e7d3fccdbc4d1de24d43013452cff23cf0",
          "topics": [
            "0x1411e470e89195b3fc751143c6dfe8c8cb1207e319c33747a017fb39e13ef92c",
            "0x0000000000000000000000000000000000000000000000000000000000000000",
            "0x000000000000000000000000c36b614d6e8ef0dd5c50c8031a1ed0b7a7442280"
          ],
          "data": "0x",
          "blockHash": "0xc2e61c6266cf7154159d2848d6f73f9d5b5256bfb8c94774b53d1e148ceb16ab",
          "blockNumber": "0xa0ea63",
          "transactionHash": "0xd5f242cb0df1e9f959e30950a72416881619f427fcd908d9b7bf2e15c4715745",
          "transactionIndex": "0x2",
          "logIndex": "0x0",
          "removed": false
        }
      ],
      "logsBloom": "0x00000000000002000000000000000400000000000000000000000000000000000000001000000000000000000000200000000000000000000000000000400000000000000000000000000000000000000000000000000000000000000000000000000000020000000000000000000800000000000000800000000000000000002000000000000000000000000000000000000000000000000000000000000000000000008000000000000000000000000000000000000000000000000000000000000000000000000000000000000000000000000000000000000000000120000000000000000000000000000000000000000000000000000000000000000000",
      "type": "0x2",
      "transactionHash": "0xd5f242cb0df1e9f959e30950a72416881619f427fcd908d9b7bf2e15c4715745",
      "transactionIndex": "0x2",
      "blockHash": "0xc2e61c6266cf7154159d2848d6f73f9d5b5256bfb8c94774b53d1e148ceb16ab",
      "blockNumber": "0xa0ea63",
      "gasUsed": "0xba4e",
      "effectiveGasPrice": "0x5d21dba01",
      "from": "0xd2df53d9791e98db221842dd085f4144014bbe2a",
      "to": "0x9a8629e7d3fccdbc4d1de24d43013452cff23cf0",
      "contractAddress": null,
      "l1BaseFeeScalar": "0x0",
      "l1BlobBaseFee": "0x1",
      "l1BlobBaseFeeScalar": "0x0",
      "l1Fee": "0x0",
      "l1GasPrice": "0xa",
      "l1GasUsed": "0x640"
    }
  ],
  "libraries": [],
  "pending": [],
  "returns": {},
  "timestamp": 1763829752,
  "chain": 11142220,
  "commit": "715cfb5"
}