{
  "transactions": [
    {
      "hash": "0xaf149673b53de64d74f033596bdb2a8d324ed3ab23a32825531df7c9abdc1c55",
      "transactionType": "CALL",
      "contractName": null,
      "contractAddress": "0xc36b614d6e8ef0dd5c50c8031a1ed0b7a7442280",
      "function": "fundPrizePool(uint256)",
      "arguments": [
        "1000000000000000000000000"
      ],
      "transaction": {
        "from": "0xd2df53d9791e98db221842dd085f4144014bbe2a",
        "to": "0xc36b614d6e8ef0dd5c50c8031a1ed0b7a7442280",
        "gas": "0x1e9ce",
        "value": "0x0",
        "input": "0xe0bcea8d00000000000000000000000000000000000000000000d3c21bcecceda1000000",
        "nonce": "0x3c",
        "chainId": "0xaa044c"
      },
      "additionalContracts": [],
      "isFixedGasLimit": false
    }
  ],
  "receipts": [
    {
      "status": "0x1",
      "cumulativeGasUsed": "0x202d5",
      "logs": [
        {
          "address": "0x4f47d6843095f3b53c67b02c9b72eb1d579051ba",
          "topics": [
            "0xddf252ad1be2c89b69c2b068fc378daa952ba7f163c4a11628f55a4df523b3ef",
            "0x0000000000000000000000000000000000000000000000000000000000000000",
            "0x000000000000000000000000c36b614d6e8ef0dd5c50c8031a1ed0b7a7442280"
          ],
          "data": "0x00000000000000000000000000000000000000000000d3c21bcecceda1000000",
          "blockHash": "0x83349bba2cc25ab62cd885a94315350303b41100c81e30d8a3645ede506bef8c",
          "blockNumber": "0xa2a3b0",
          "transactionHash": "0xaf149673b53de64d74f033596bdb2a8d324ed3ab23a32825531df7c9abdc1c55",
          "transactionIndex": "0x1",
          "logIndex": "0x0",
          "removed": false
        },
        {
          "address": "0x4f47d6843095f3b53c67b02c9b72eb1d579051ba",
          "topics": [
            "0x3f2c9d57c068687834f0de942a9babb9e5acab57d516d3480a3c16ee165a4273",
            "0x000000000000000000000000c36b614d6e8ef0dd5c50c8031a1ed0b7a7442280"
          ],
          "data": "0x00000000000000000000000000000000000000000000d3c21bcecceda1000000",
          "blockHash": "0x83349bba2cc25ab62cd885a94315350303b41100c81e30d8a3645ede506bef8c",
          "blockNumber": "0xa2a3b0",
          "transactionHash": "0xaf149673b53de64d74f033596bdb2a8d324ed3ab23a32825531df7c9abdc1c55",
          "transactionIndex": "0x1",
          "logIndex": "0x1",
          "removed": false
        },
        {
          "address": "0xc36b614d6e8ef0dd5c50c8031a1ed0b7a7442280",
          "topics": [
            "0x7bc22304ac771f50d6cc29b56387cb4855f284e7a1f83e6420fe9b8bbdaf45c9"
          ],
          "data": "0x00000000000000000000000000000000000000000000d3c21bcecceda1000000",
          "blockHash": "0x83349bba2cc25ab62cd885a94315350303b41100c81e30d8a3645ede506bef8c",
          "blockNumber": "0xa2a3b0",
          "transactionHash": "0xaf149673b53de64d74f033596bdb2a8d324ed3ab23a32825531df7c9abdc1c55",
          "transactionIndex": "0x1",
          "logIndex": "0x2",
          "removed": false
        }
      ],
      "logsBloom": "0x0000000000000000000000000000040000000000000000000000100000000000000000000000000000000000000000000040000000000800000000000000000000000000000000000000000800000000000000000000000000000000000000400000000002000000000000000000081000000000000080000000001000000080200000000000000000000000000000010000000000000000000000000000000000000000000000000000000000000000000000000000000000000000008000000000000a000000000000000000020000000000000000000004000800000020000000000000000000000000000000000000000000000000000000000000000000",
      "type": "0x0",
      "transactionHash": "0xaf149673b53de64d74f033596bdb2a8d324ed3ab23a32825531df7c9abdc1c55",
      "transactionIndex": "0x1",
      "blockHash": "0x83349bba2cc25ab62cd885a94315350303b41100c81e30d8a3645ede506bef8c",
      "blockNumber": "0xa2a3b0",
      "gasUsed": "0x14ee9",
      "effectiveGasPrice": "0x5d22cfc40",
      "from": "0xd2df53d9791e98db221842dd085f4144014bbe2a",
      "to": "0xc36b614d6e8ef0dd5c50c8031a1ed0b7a7442280",
      "contractAddress": null,
      "l1BaseFeeScalar": "0x0",
      "l1BlobBaseFee": "0x1",
      "l1BlobBaseFeeScalar": "0x0",
      "l1Fee": "0x0",
      "l1GasPrice": "0x9",
      "l1GasUsed": "0x640"
    }
  ],
  "libraries": [],
  "pending": [],
  "returns": {},
  "timestamp": 1763942725,
  "chain": 11142220,
  "commit": "f1e9f48"
}